{
  "address": "0xe044814c9eD1e6442Af956a817c161192cBaE98F",
  "abi": [
    {
      "inputs": [
        {
          "internalType": "contract ILendingPool",
          "name": "_lendingPool",
          "type": "address"
        },
        {
          "internalType": "address",
          "name": "poolAddress",
          "type": "address"
        }
      ],
      "stateMutability": "nonpayable",
      "type": "constructor"
    },
    {
      "anonymous": false,
      "inputs": [
        {
          "indexed": true,
          "internalType": "address",
          "name": "previousOwner",
          "type": "address"
        },
        {
          "indexed": true,
          "internalType": "address",
          "name": "newOwner",
          "type": "address"
        }
      ],
      "name": "OwnershipTransferred",
      "type": "event"
    },
    {
      "inputs": [
        {
          "components": [
            {
              "internalType": "address",
              "name": "clientAddress",
              "type": "address"
            },
            {
              "internalType": "address",
              "name": "tokenFrom",
              "type": "address"
            },
            {
              "internalType": "address",
              "name": "tokenTo",
              "type": "address"
            },
            {
              "internalType": "uint256",
              "name": "amountIn",
              "type": "uint256"
            },
            {
              "internalType": "uint24",
              "name": "poolFee",
              "type": "uint24"
            }
          ],
          "internalType": "struct ILiquidationProtocol.LiquidateParams",
          "name": "lparams",
          "type": "tuple"
        }
      ],
      "name": "getApproveAmount",
      "outputs": [
        {
          "internalType": "uint256",
          "name": "amountOut",
          "type": "uint256"
        }
      ],
      "stateMutability": "view",
      "type": "function"
    },
    {
      "inputs": [],
      "name": "lendingPool",
      "outputs": [
        {
          "internalType": "contract ILendingPool",
          "name": "",
          "type": "address"
        }
      ],
      "stateMutability": "view",
      "type": "function"
    },
    {
      "inputs": [],
      "name": "owner",
      "outputs": [
        {
          "internalType": "address",
          "name": "",
          "type": "address"
        }
      ],
      "stateMutability": "view",
      "type": "function"
    },
    {
      "inputs": [],
      "name": "renounceOwnership",
      "outputs": [],
      "stateMutability": "nonpayable",
      "type": "function"
    },
    {
      "inputs": [
        {
          "components": [
            {
              "internalType": "address",
              "name": "clientAddress",
              "type": "address"
            },
            {
              "internalType": "address",
              "name": "tokenFrom",
              "type": "address"
            },
            {
              "internalType": "address",
              "name": "tokenTo",
              "type": "address"
            },
            {
              "internalType": "uint256",
              "name": "amountIn",
              "type": "uint256"
            },
            {
              "internalType": "uint24",
              "name": "poolFee",
              "type": "uint24"
            }
          ],
          "internalType": "struct ILiquidationProtocol.LiquidateParams",
          "name": "lparams",
          "type": "tuple"
        }
      ],
      "name": "swap",
      "outputs": [
        {
          "components": [
            {
              "internalType": "address",
              "name": "token",
              "type": "address"
            },
            {
              "internalType": "uint256",
              "name": "amount",
              "type": "uint256"
            }
          ],
          "internalType": "struct ILiquidationProtocol.LiquidatedAmount[]",
          "name": "amounts",
          "type": "tuple[]"
        }
      ],
      "stateMutability": "nonpayable",
      "type": "function"
    },
    {
      "inputs": [
        {
          "internalType": "address",
          "name": "newOwner",
          "type": "address"
        }
      ],
      "name": "transferOwnership",
      "outputs": [],
      "stateMutability": "nonpayable",
      "type": "function"
    }
  ],
  "transactionHash": "0x4af26891442388a74a409a083e0b664fcde24cee2df18653384d827604d85513",
  "args": [
    "0x7d2768dE32b0b80b7a3454c06BdAc94A69DDc7A9",
    "0xCa57C1d3c2c35E667745448Fef8407dd25487ff8"
  ],
  "numDeployments": 1,
  "solcInputHash": "7bc9459bb57cd8cc0eb8f51073ab0ff6",
  "bytecode": "0x60a06040523480156200001157600080fd5b5060405162001b7f38038062001b7f833981810160405281019062000037919062000224565b620000576200004b620000a960201b60201c565b620000b160201b60201c565b8173ffffffffffffffffffffffffffffffffffffffff1660808173ffffffffffffffffffffffffffffffffffffffff1681525050620000a181620000b160201b620007811760201c565b50506200026b565b600033905090565b60008060009054906101000a900473ffffffffffffffffffffffffffffffffffffffff169050816000806101000a81548173ffffffffffffffffffffffffffffffffffffffff021916908373ffffffffffffffffffffffffffffffffffffffff1602179055508173ffffffffffffffffffffffffffffffffffffffff168173ffffffffffffffffffffffffffffffffffffffff167f8be0079c531659141344cd1fd0a4f28419497f9722a3daafe3b4186f6b6457e060405160405180910390a35050565b600080fd5b600073ffffffffffffffffffffffffffffffffffffffff82169050919050565b6000620001a7826200017a565b9050919050565b6000620001bb826200019a565b9050919050565b620001cd81620001ae565b8114620001d957600080fd5b50565b600081519050620001ed81620001c2565b92915050565b620001fe816200019a565b81146200020a57600080fd5b50565b6000815190506200021e81620001f3565b92915050565b600080604083850312156200023e576200023d62000175565b5b60006200024e85828601620001dc565b925050602062000261858286016200020d565b9150509250929050565b6080516118dc620002a36000396000818161012e015281816101d00152818161036a01528181610427015261053601526118dc6000f3fe608060405234801561001057600080fd5b50600436106100625760003560e01c806324cfea2414610067578063715018a6146100975780638da5cb5b146100a1578063a59a9973146100bf578063d2827962146100dd578063f2fde38b1461010d575b600080fd5b610081600480360381019061007c9190610e6c565b610129565b60405161008e9190610ea8565b60405180910390f35b61009f6102b7565b005b6100a961033f565b6040516100b69190610ed2565b60405180910390f35b6100c7610368565b6040516100d49190610f4c565b60405180910390f35b6100f760048036038101906100f29190610e6c565b61038c565b6040516101049190611063565b60405180910390f35b61012760048036038101906101229190611085565b610689565b005b6000807f000000000000000000000000000000000000000000000000000000000000000073ffffffffffffffffffffffffffffffffffffffff1663d15e005384604001516040518263ffffffff1660e01b81526004016101899190610ed2565b602060405180830381865afa1580156101a6573d6000803e3d6000fd5b505050506040513d601f19601f820116820180604052508101906101ca91906110c7565b905060007f000000000000000000000000000000000000000000000000000000000000000073ffffffffffffffffffffffffffffffffffffffff166335ea6a7585604001516040518263ffffffff1660e01b815260040161022b9190610ed2565b61018060405180830381865afa158015610249573d6000803e3d6000fd5b505050506040513d601f19601f8201168201806040525081019061026d9190611325565b602001516fffffffffffffffffffffffffffffffff1690506102ae826102a083876060015161084590919063ffffffff16565b6109c990919063ffffffff16565b92505050919050565b6102bf610b00565b73ffffffffffffffffffffffffffffffffffffffff166102dd61033f565b73ffffffffffffffffffffffffffffffffffffffff1614610333576040517f08c379a000000000000000000000000000000000000000000000000000000000815260040161032a906113b0565b60405180910390fd5b61033d6000610781565b565b60008060009054906101000a900473ffffffffffffffffffffffffffffffffffffffff16905090565b7f000000000000000000000000000000000000000000000000000000000000000081565b6060610396610b00565b73ffffffffffffffffffffffffffffffffffffffff166103b461033f565b73ffffffffffffffffffffffffffffffffffffffff161461040a576040517f08c379a0000000000000000000000000000000000000000000000000000000008152600401610401906113b0565b60405180910390fd5b816020015173ffffffffffffffffffffffffffffffffffffffff167f000000000000000000000000000000000000000000000000000000000000000073ffffffffffffffffffffffffffffffffffffffff166335ea6a7584604001516040518263ffffffff1660e01b81526004016104829190610ed2565b61018060405180830381865afa1580156104a0573d6000803e3d6000fd5b505050506040513d601f19601f820116820180604052508101906104c49190611325565b60e0015173ffffffffffffffffffffffffffffffffffffffff161461051e576040517f08c379a00000000000000000000000000000000000000000000000000000000081526004016105159061141c565b60405180910390fd5b610532826020015133308560600151610b08565b60007f000000000000000000000000000000000000000000000000000000000000000073ffffffffffffffffffffffffffffffffffffffff166369328dec84604001518560600151336040518463ffffffff1660e01b81526004016105999392919061143c565b6020604051808303816000875af11580156105b8573d6000803e3d6000fd5b505050506040513d601f19601f820116820180604052508101906105dc91906110c7565b9050600167ffffffffffffffff8111156105f9576105f8610c96565b5b60405190808252806020026020018201604052801561063257816020015b61061f610c41565b8152602001906001900390816106175790505b5091506040518060400160405280846040015173ffffffffffffffffffffffffffffffffffffffff168152602001828152508260008151811061067857610677611473565b5b602002602001018190525050919050565b610691610b00565b73ffffffffffffffffffffffffffffffffffffffff166106af61033f565b73ffffffffffffffffffffffffffffffffffffffff1614610705576040517f08c379a00000000000000000000000000000000000000000000000000000000081526004016106fc906113b0565b60405180910390fd5b600073ffffffffffffffffffffffffffffffffffffffff168173ffffffffffffffffffffffffffffffffffffffff161415610775576040517f08c379a000000000000000000000000000000000000000000000000000000000815260040161076c90611514565b60405180910390fd5b61077e81610781565b50565b60008060009054906101000a900473ffffffffffffffffffffffffffffffffffffffff169050816000806101000a81548173ffffffffffffffffffffffffffffffffffffffff021916908373ffffffffffffffffffffffffffffffffffffffff1602179055508173ffffffffffffffffffffffffffffffffffffffff168173ffffffffffffffffffffffffffffffffffffffff167f8be0079c531659141344cd1fd0a4f28419497f9722a3daafe3b4186f6b6457e060405160405180910390a35050565b6000808214156040518060400160405280600281526020017f3530000000000000000000000000000000000000000000000000000000000000815250906108c2576040517f08c379a00000000000000000000000000000000000000000000000000000000081526004016108b991906115ab565b60405180910390fd5b5060006002836108d2919061162b565b90506b033b2e3c9fd0803ce8000000817fffffffffffffffffffffffffffffffffffffffffffffffffffffffffffffffff61090d919061165c565b610917919061162b565b8411156040518060400160405280600281526020017f343800000000000000000000000000000000000000000000000000000000000081525090610991576040517f08c379a000000000000000000000000000000000000000000000000000000000815260040161098891906115ab565b60405180910390fd5b5082816b033b2e3c9fd0803ce8000000866109ac9190611690565b6109b691906116ea565b6109c0919061162b565b91505092915050565b6000808314806109d95750600082145b156109e75760009050610afa565b8160026b033b2e3c9fd0803ce8000000610a01919061162b565b7fffffffffffffffffffffffffffffffffffffffffffffffffffffffffffffffff610a2c919061165c565b610a36919061162b565b8311156040518060400160405280600281526020017f343800000000000000000000000000000000000000000000000000000000000081525090610ab0576040517f08c379a0000000000000000000000000000000000000000000000000000000008152600401610aa791906115ab565b60405180910390fd5b506b033b2e3c9fd0803ce800000060026b033b2e3c9fd0803ce8000000610ad7919061162b565b8385610ae39190611690565b610aed91906116ea565b610af7919061162b565b90505b92915050565b600033905090565b6000808573ffffffffffffffffffffffffffffffffffffffff166323b872dd868686604051602401610b3c93929190611740565b6040516020818303038152906040529060e01b6020820180517bffffffffffffffffffffffffffffffffffffffffffffffffffffffff8381831617835250505050604051610b8a91906117be565b6000604051808303816000865af19150503d8060008114610bc7576040519150601f19603f3d011682016040523d82523d6000602084013e610bcc565b606091505b5091509150818015610bfa5750600081511480610bf9575080806020019051810190610bf8919061180d565b5b5b610c39576040517f08c379a0000000000000000000000000000000000000000000000000000000008152600401610c3090611886565b60405180910390fd5b505050505050565b6040518060400160405280600073ffffffffffffffffffffffffffffffffffffffff168152602001600081525090565b6000604051905090565b600080fd5b600080fd5b6000601f19601f8301169050919050565b7f4e487b7100000000000000000000000000000000000000000000000000000000600052604160045260246000fd5b610cce82610c85565b810181811067ffffffffffffffff82111715610ced57610cec610c96565b5b80604052505050565b6000610d00610c71565b9050610d0c8282610cc5565b919050565b600073ffffffffffffffffffffffffffffffffffffffff82169050919050565b6000610d3c82610d11565b9050919050565b610d4c81610d31565b8114610d5757600080fd5b50565b600081359050610d6981610d43565b92915050565b6000819050919050565b610d8281610d6f565b8114610d8d57600080fd5b50565b600081359050610d9f81610d79565b92915050565b600062ffffff82169050919050565b610dbd81610da5565b8114610dc857600080fd5b50565b600081359050610dda81610db4565b92915050565b600060a08284031215610df657610df5610c80565b5b610e0060a0610cf6565b90506000610e1084828501610d5a565b6000830152506020610e2484828501610d5a565b6020830152506040610e3884828501610d5a565b6040830152506060610e4c84828501610d90565b6060830152506080610e6084828501610dcb565b60808301525092915050565b600060a08284031215610e8257610e81610c7b565b5b6000610e9084828501610de0565b91505092915050565b610ea281610d6f565b82525050565b6000602082019050610ebd6000830184610e99565b92915050565b610ecc81610d31565b82525050565b6000602082019050610ee76000830184610ec3565b92915050565b6000819050919050565b6000610f12610f0d610f0884610d11565b610eed565b610d11565b9050919050565b6000610f2482610ef7565b9050919050565b6000610f3682610f19565b9050919050565b610f4681610f2b565b82525050565b6000602082019050610f616000830184610f3d565b92915050565b600081519050919050565b600082825260208201905092915050565b6000819050602082019050919050565b610f9c81610d31565b82525050565b610fab81610d6f565b82525050565b604082016000820151610fc76000850182610f93565b506020820151610fda6020850182610fa2565b50505050565b6000610fec8383610fb1565b60408301905092915050565b6000602082019050919050565b600061101082610f67565b61101a8185610f72565b935061102583610f83565b8060005b8381101561105657815161103d8882610fe0565b975061104883610ff8565b925050600181019050611029565b5085935050505092915050565b6000602082019050818103600083015261107d8184611005565b905092915050565b60006020828403121561109b5761109a610c7b565b5b60006110a984828501610d5a565b91505092915050565b6000815190506110c181610d79565b92915050565b6000602082840312156110dd576110dc610c7b565b5b60006110eb848285016110b2565b91505092915050565b60006020828403121561110a57611109610c80565b5b6111146020610cf6565b90506000611124848285016110b2565b60008301525092915050565b60006fffffffffffffffffffffffffffffffff82169050919050565b61115581611130565b811461116057600080fd5b50565b6000815190506111728161114c565b92915050565b600064ffffffffff82169050919050565b61119281611178565b811461119d57600080fd5b50565b6000815190506111af81611189565b92915050565b6000815190506111c481610d43565b92915050565b600060ff82169050919050565b6111e0816111ca565b81146111eb57600080fd5b50565b6000815190506111fd816111d7565b92915050565b6000610180828403121561121a57611219610c80565b5b611225610180610cf6565b90506000611235848285016110f4565b600083015250602061124984828501611163565b602083015250604061125d84828501611163565b604083015250606061127184828501611163565b606083015250608061128584828501611163565b60808301525060a061129984828501611163565b60a08301525060c06112ad848285016111a0565b60c08301525060e06112c1848285016111b5565b60e0830152506101006112d6848285016111b5565b610100830152506101206112ec848285016111b5565b61012083015250610140611302848285016111b5565b61014083015250610160611318848285016111ee565b6101608301525092915050565b6000610180828403121561133c5761133b610c7b565b5b600061134a84828501611203565b91505092915050565b600082825260208201905092915050565b7f4f776e61626c653a2063616c6c6572206973206e6f7420746865206f776e6572600082015250565b600061139a602083611353565b91506113a582611364565b602082019050919050565b600060208201905081810360008301526113c98161138d565b9050919050565b7f746f6b656e546f206973206e6f7420756e6465726c79696e6720617373657400600082015250565b6000611406601f83611353565b9150611411826113d0565b602082019050919050565b60006020820190508181036000830152611435816113f9565b9050919050565b60006060820190506114516000830186610ec3565b61145e6020830185610e99565b61146b6040830184610ec3565b949350505050565b7f4e487b7100000000000000000000000000000000000000000000000000000000600052603260045260246000fd5b7f4f776e61626c653a206e6577206f776e657220697320746865207a65726f206160008201527f6464726573730000000000000000000000000000000000000000000000000000602082015250565b60006114fe602683611353565b9150611509826114a2565b604082019050919050565b6000602082019050818103600083015261152d816114f1565b9050919050565b600081519050919050565b60005b8381101561155d578082015181840152602081019050611542565b8381111561156c576000848401525b50505050565b600061157d82611534565b6115878185611353565b935061159781856020860161153f565b6115a081610c85565b840191505092915050565b600060208201905081810360008301526115c58184611572565b905092915050565b7f4e487b7100000000000000000000000000000000000000000000000000000000600052601260045260246000fd5b7f4e487b7100000000000000000000000000000000000000000000000000000000600052601160045260246000fd5b600061163682610d6f565b915061164183610d6f565b925082611651576116506115cd565b5b828204905092915050565b600061166782610d6f565b915061167283610d6f565b925082821015611685576116846115fc565b5b828203905092915050565b600061169b82610d6f565b91506116a683610d6f565b9250817fffffffffffffffffffffffffffffffffffffffffffffffffffffffffffffffff04831182151516156116df576116de6115fc565b5b828202905092915050565b60006116f582610d6f565b915061170083610d6f565b9250827fffffffffffffffffffffffffffffffffffffffffffffffffffffffffffffffff03821115611735576117346115fc565b5b828201905092915050565b60006060820190506117556000830186610ec3565b6117626020830185610ec3565b61176f6040830184610e99565b949350505050565b600081519050919050565b600081905092915050565b600061179882611777565b6117a28185611782565b93506117b281856020860161153f565b80840191505092915050565b60006117ca828461178d565b915081905092915050565b60008115159050919050565b6117ea816117d5565b81146117f557600080fd5b50565b600081519050611807816117e1565b92915050565b60006020828403121561182357611822610c7b565b5b6000611831848285016117f8565b91505092915050565b7f7472616e7366657246726f6d206661696c656400000000000000000000000000600082015250565b6000611870601383611353565b915061187b8261183a565b602082019050919050565b6000602082019050818103600083015261189f81611863565b905091905056fea26469706673582212200d1a09ecd58409184d401d618a22808d082d1201cb111ab7770e5d002295485264736f6c634300080c0033",
  "devdoc": {
    "kind": "dev",
    "methods": {
      "owner()": {
        "details": "Returns the address of the current owner."
      },
      "renounceOwnership()": {
        "details": "Leaves the contract without owner. It will not be possible to call `onlyOwner` functions anymore. Can only be called by the current owner. NOTE: Renouncing ownership will leave the contract without an owner, thereby removing any functionality that is only available to the owner."
      },
      "swap((address,address,address,uint256,uint24))": {
        "details": "The calling address must approve this contract to spend at least `amountIn` worth of its DAI for this function to succeed.check https://docs.aave.com/developers/v/2.0/guides/troubleshooting-errors#reference-guide for error codes from lendingPool.withdraw()",
        "params": {
          "lparams": "check ILiquidationProtocol.LiquidateParams for params strut."
        },
        "returns": {
          "amounts": "The amount of target token received."
        }
      },
      "transferOwnership(address)": {
        "details": "Transfers ownership of the contract to a new account (`newOwner`). Can only be called by the current owner."
      }
    },
    "version": 1
  },
  "userdoc": {
    "kind": "user",
    "methods": {
      "swap((address,address,address,uint256,uint24))": {
        "notice": "swap swaps token on uniswap v3. calls `exactInputSingle` in the swap router."
      }
    },
    "version": 1
  },
  "storageLayout": {
    "storage": [
      {
        "astId": 6936,
        "contract": "contracts/LiquidationAaveV2.sol:LiquidationAaveV2",
        "label": "_owner",
        "offset": 0,
        "slot": "0",
        "type": "t_address"
      }
    ],
    "types": {
      "t_address": {
        "encoding": "inplace",
        "label": "address",
        "numberOfBytes": "20"
      }
    }
  }
}