{
  "address": "0x4454D275d80c5253EeE3C4f71c4f95a6536D96ac",
  "abi": [
    {
      "inputs": [
        {
          "internalType": "address",
          "name": "poolAddress",
          "type": "address"
        }
      ],
      "stateMutability": "nonpayable",
      "type": "constructor"
    },
    {
      "anonymous": false,
      "inputs": [
        {
          "indexed": true,
          "internalType": "address",
          "name": "previousOwner",
          "type": "address"
        },
        {
          "indexed": true,
          "internalType": "address",
          "name": "newOwner",
          "type": "address"
        }
      ],
      "name": "OwnershipTransferred",
      "type": "event"
    },
    {
      "inputs": [
        {
          "components": [
            {
              "internalType": "address",
              "name": "clientAddress",
              "type": "address"
            },
            {
              "internalType": "address",
              "name": "tokenFrom",
              "type": "address"
            },
            {
              "internalType": "address",
              "name": "tokenTo",
              "type": "address"
            },
            {
              "internalType": "uint256",
              "name": "amountIn",
              "type": "uint256"
            },
            {
              "internalType": "uint24",
              "name": "poolFee",
              "type": "uint24"
            }
          ],
          "internalType": "struct ILiquidationProtocol.LiquidateParams",
          "name": "lparams",
          "type": "tuple"
        }
      ],
      "name": "getApproveAmount",
      "outputs": [
        {
          "internalType": "uint256",
          "name": "amountOut",
          "type": "uint256"
        }
      ],
      "stateMutability": "pure",
      "type": "function"
    },
    {
      "inputs": [],
      "name": "owner",
      "outputs": [
        {
          "internalType": "address",
          "name": "",
          "type": "address"
        }
      ],
      "stateMutability": "view",
      "type": "function"
    },
    {
      "inputs": [],
      "name": "renounceOwnership",
      "outputs": [],
      "stateMutability": "nonpayable",
      "type": "function"
    },
    {
      "inputs": [
        {
          "components": [
            {
              "internalType": "address",
              "name": "clientAddress",
              "type": "address"
            },
            {
              "internalType": "address",
              "name": "tokenFrom",
              "type": "address"
            },
            {
              "internalType": "address",
              "name": "tokenTo",
              "type": "address"
            },
            {
              "internalType": "uint256",
              "name": "amountIn",
              "type": "uint256"
            },
            {
              "internalType": "uint24",
              "name": "poolFee",
              "type": "uint24"
            }
          ],
          "internalType": "struct ILiquidationProtocol.LiquidateParams",
          "name": "lparams",
          "type": "tuple"
        }
      ],
      "name": "swap",
      "outputs": [
        {
          "components": [
            {
              "internalType": "address",
              "name": "token",
              "type": "address"
            },
            {
              "internalType": "uint256",
              "name": "amount",
              "type": "uint256"
            }
          ],
          "internalType": "struct ILiquidationProtocol.LiquidatedAmount[]",
          "name": "amounts",
          "type": "tuple[]"
        }
      ],
      "stateMutability": "nonpayable",
      "type": "function"
    },
    {
      "inputs": [
        {
          "internalType": "address",
          "name": "newOwner",
          "type": "address"
        }
      ],
      "name": "transferOwnership",
      "outputs": [],
      "stateMutability": "nonpayable",
      "type": "function"
    }
  ],
  "transactionHash": "0x6f03ad163707bc7f844830d75eb1b43a9b5d2e8da6b070b7d6f4b260af099384",
  "args": [
    "0xF2d8E40a7761cF301AA5BABC436d77dfD456d8dc"
  ],
  "numDeployments": 1,
  "solcInputHash": "7bc9459bb57cd8cc0eb8f51073ab0ff6",
  "bytecode": "0x60806040523480156200001157600080fd5b5060405162001973380380620019738339818101604052810190620000379190620001aa565b620000576200004b6200007460201b60201c565b6200007c60201b60201c565b6200006d816200007c60201b6200066d1760201c565b50620001dc565b600033905090565b60008060009054906101000a900473ffffffffffffffffffffffffffffffffffffffff169050816000806101000a81548173ffffffffffffffffffffffffffffffffffffffff021916908373ffffffffffffffffffffffffffffffffffffffff1602179055508173ffffffffffffffffffffffffffffffffffffffff168173ffffffffffffffffffffffffffffffffffffffff167f8be0079c531659141344cd1fd0a4f28419497f9722a3daafe3b4186f6b6457e060405160405180910390a35050565b600080fd5b600073ffffffffffffffffffffffffffffffffffffffff82169050919050565b6000620001728262000145565b9050919050565b620001848162000165565b81146200019057600080fd5b50565b600081519050620001a48162000179565b92915050565b600060208284031215620001c357620001c262000140565b5b6000620001d38482850162000193565b91505092915050565b61178780620001ec6000396000f3fe608060405234801561001057600080fd5b50600436106100575760003560e01c806324cfea241461005c578063715018a61461008c5780638da5cb5b14610096578063d2827962146100b4578063f2fde38b146100e4575b600080fd5b61007660048036038101906100719190610e6a565b610100565b6040516100839190610ea6565b60405180910390f35b61009461010e565b005b61009e610196565b6040516100ab9190610ed0565b60405180910390f35b6100ce60048036038101906100c99190610e6a565b6101bf565b6040516100db9190610fe7565b60405180910390f35b6100fe60048036038101906100f99190611009565b610575565b005b600081606001519050919050565b610116610731565b73ffffffffffffffffffffffffffffffffffffffff16610134610196565b73ffffffffffffffffffffffffffffffffffffffff161461018a576040517f08c379a000000000000000000000000000000000000000000000000000000000815260040161018190611093565b60405180910390fd5b610194600061066d565b565b60008060009054906101000a900473ffffffffffffffffffffffffffffffffffffffff16905090565b60606101c9610731565b73ffffffffffffffffffffffffffffffffffffffff166101e7610196565b73ffffffffffffffffffffffffffffffffffffffff161461023d576040517f08c379a000000000000000000000000000000000000000000000000000000000815260040161023490611093565b60405180910390fd5b610251826020015133308560600151610739565b600082602001519050826040015173ffffffffffffffffffffffffffffffffffffffff168173ffffffffffffffffffffffffffffffffffffffff16636f307dc36040518163ffffffff1660e01b8152600401602060405180830381865afa1580156102c0573d6000803e3d6000fd5b505050506040513d601f19601f820116820180604052508101906102e491906110c8565b73ffffffffffffffffffffffffffffffffffffffff161461033a576040517f08c379a000000000000000000000000000000000000000000000000000000000815260040161033190611141565b60405180910390fd5b60008173ffffffffffffffffffffffffffffffffffffffff1663bd6d894d6040518163ffffffff1660e01b81526004016020604051808303816000875af1158015610389573d6000803e3d6000fd5b505050506040513d601f19601f820116820180604052508101906103ad9190611176565b90506000670de0b6b3a76400008286606001516103ca91906111d2565b6103d4919061125b565b905060008373ffffffffffffffffffffffffffffffffffffffff1663db006a7587606001516040518263ffffffff1660e01b81526004016104159190610ea6565b6020604051808303816000875af1158015610434573d6000803e3d6000fd5b505050506040513d601f19601f820116820180604052508101906104589190611176565b90506000811461046782610872565b906104a8576040517f08c379a000000000000000000000000000000000000000000000000000000000815260040161049f9190611303565b60405180910390fd5b506104b8866040015133846109d3565b6104c786604001513384610b09565b600167ffffffffffffffff8111156104e2576104e1610c94565b5b60405190808252806020026020018201604052801561051b57816020015b610508610c3f565b8152602001906001900390816105005790505b5094506040518060400160405280876040015173ffffffffffffffffffffffffffffffffffffffff168152602001838152508560008151811061056157610560611325565b5b602002602001018190525050505050919050565b61057d610731565b73ffffffffffffffffffffffffffffffffffffffff1661059b610196565b73ffffffffffffffffffffffffffffffffffffffff16146105f1576040517f08c379a00000000000000000000000000000000000000000000000000000000081526004016105e890611093565b60405180910390fd5b600073ffffffffffffffffffffffffffffffffffffffff168173ffffffffffffffffffffffffffffffffffffffff161415610661576040517f08c379a0000000000000000000000000000000000000000000000000000000008152600401610658906113c6565b60405180910390fd5b61066a8161066d565b50565b60008060009054906101000a900473ffffffffffffffffffffffffffffffffffffffff169050816000806101000a81548173ffffffffffffffffffffffffffffffffffffffff021916908373ffffffffffffffffffffffffffffffffffffffff1602179055508173ffffffffffffffffffffffffffffffffffffffff168173ffffffffffffffffffffffffffffffffffffffff167f8be0079c531659141344cd1fd0a4f28419497f9722a3daafe3b4186f6b6457e060405160405180910390a35050565b600033905090565b6000808573ffffffffffffffffffffffffffffffffffffffff166323b872dd86868660405160240161076d939291906113e6565b6040516020818303038152906040529060e01b6020820180517bffffffffffffffffffffffffffffffffffffffffffffffffffffffff83818316178352505050506040516107bb9190611464565b6000604051808303816000865af19150503d80600081146107f8576040519150601f19603f3d011682016040523d82523d6000602084013e6107fd565b606091505b509150915081801561082b575060008151148061082a57508080602001905181019061082991906114b3565b5b5b61086a576040517f08c379a00000000000000000000000000000000000000000000000000000000081526004016108619061152c565b60405180910390fd5b505050505050565b606060008214156108ba576040518060400160405280600181526020017f300000000000000000000000000000000000000000000000000000000000000081525090506109ce565b600082905060005b600082146108ec5780806108d59061154c565b915050600a826108e5919061125b565b91506108c2565b60008167ffffffffffffffff81111561090857610907610c94565b5b6040519080825280601f01601f19166020018201604052801561093a5781602001600182028036833780820191505090505b5090505b600085146109c7576001826109539190611595565b9150600a8561096291906115c9565b603061096e91906115fa565b60f81b81838151811061098457610983611325565b5b60200101907effffffffffffffffffffffffffffffffffffffffffffffffffffffffffffff1916908160001a905350600a856109c0919061125b565b945061093e565b8093505050505b919050565b6000808473ffffffffffffffffffffffffffffffffffffffff1663095ea7b38585604051602401610a05929190611650565b6040516020818303038152906040529060e01b6020820180517bffffffffffffffffffffffffffffffffffffffffffffffffffffffff8381831617835250505050604051610a539190611464565b6000604051808303816000865af19150503d8060008114610a90576040519150601f19603f3d011682016040523d82523d6000602084013e610a95565b606091505b5091509150818015610ac35750600081511480610ac2575080806020019051810190610ac191906114b3565b5b5b610b02576040517f08c379a0000000000000000000000000000000000000000000000000000000008152600401610af9906116c5565b60405180910390fd5b5050505050565b6000808473ffffffffffffffffffffffffffffffffffffffff1663a9059cbb8585604051602401610b3b929190611650565b6040516020818303038152906040529060e01b6020820180517bffffffffffffffffffffffffffffffffffffffffffffffffffffffff8381831617835250505050604051610b899190611464565b6000604051808303816000865af19150503d8060008114610bc6576040519150601f19603f3d011682016040523d82523d6000602084013e610bcb565b606091505b5091509150818015610bf95750600081511480610bf8575080806020019051810190610bf791906114b3565b5b5b610c38576040517f08c379a0000000000000000000000000000000000000000000000000000000008152600401610c2f90611731565b60405180910390fd5b5050505050565b6040518060400160405280600073ffffffffffffffffffffffffffffffffffffffff168152602001600081525090565b6000604051905090565b600080fd5b600080fd5b6000601f19601f8301169050919050565b7f4e487b7100000000000000000000000000000000000000000000000000000000600052604160045260246000fd5b610ccc82610c83565b810181811067ffffffffffffffff82111715610ceb57610cea610c94565b5b80604052505050565b6000610cfe610c6f565b9050610d0a8282610cc3565b919050565b600073ffffffffffffffffffffffffffffffffffffffff82169050919050565b6000610d3a82610d0f565b9050919050565b610d4a81610d2f565b8114610d5557600080fd5b50565b600081359050610d6781610d41565b92915050565b6000819050919050565b610d8081610d6d565b8114610d8b57600080fd5b50565b600081359050610d9d81610d77565b92915050565b600062ffffff82169050919050565b610dbb81610da3565b8114610dc657600080fd5b50565b600081359050610dd881610db2565b92915050565b600060a08284031215610df457610df3610c7e565b5b610dfe60a0610cf4565b90506000610e0e84828501610d58565b6000830152506020610e2284828501610d58565b6020830152506040610e3684828501610d58565b6040830152506060610e4a84828501610d8e565b6060830152506080610e5e84828501610dc9565b60808301525092915050565b600060a08284031215610e8057610e7f610c79565b5b6000610e8e84828501610dde565b91505092915050565b610ea081610d6d565b82525050565b6000602082019050610ebb6000830184610e97565b92915050565b610eca81610d2f565b82525050565b6000602082019050610ee56000830184610ec1565b92915050565b600081519050919050565b600082825260208201905092915050565b6000819050602082019050919050565b610f2081610d2f565b82525050565b610f2f81610d6d565b82525050565b604082016000820151610f4b6000850182610f17565b506020820151610f5e6020850182610f26565b50505050565b6000610f708383610f35565b60408301905092915050565b6000602082019050919050565b6000610f9482610eeb565b610f9e8185610ef6565b9350610fa983610f07565b8060005b83811015610fda578151610fc18882610f64565b9750610fcc83610f7c565b925050600181019050610fad565b5085935050505092915050565b600060208201905081810360008301526110018184610f89565b905092915050565b60006020828403121561101f5761101e610c79565b5b600061102d84828501610d58565b91505092915050565b600082825260208201905092915050565b7f4f776e61626c653a2063616c6c6572206973206e6f7420746865206f776e6572600082015250565b600061107d602083611036565b915061108882611047565b602082019050919050565b600060208201905081810360008301526110ac81611070565b9050919050565b6000815190506110c281610d41565b92915050565b6000602082840312156110de576110dd610c79565b5b60006110ec848285016110b3565b91505092915050565b7f746f6b656e546f206973206e6f7420756e6465726c79696e6720617373657400600082015250565b600061112b601f83611036565b9150611136826110f5565b602082019050919050565b6000602082019050818103600083015261115a8161111e565b9050919050565b60008151905061117081610d77565b92915050565b60006020828403121561118c5761118b610c79565b5b600061119a84828501611161565b91505092915050565b7f4e487b7100000000000000000000000000000000000000000000000000000000600052601160045260246000fd5b60006111dd82610d6d565b91506111e883610d6d565b9250817fffffffffffffffffffffffffffffffffffffffffffffffffffffffffffffffff0483118215151615611221576112206111a3565b5b828202905092915050565b7f4e487b7100000000000000000000000000000000000000000000000000000000600052601260045260246000fd5b600061126682610d6d565b915061127183610d6d565b9250826112815761128061122c565b5b828204905092915050565b600081519050919050565b60005b838110156112b557808201518184015260208101905061129a565b838111156112c4576000848401525b50505050565b60006112d58261128c565b6112df8185611036565b93506112ef818560208601611297565b6112f881610c83565b840191505092915050565b6000602082019050818103600083015261131d81846112ca565b905092915050565b7f4e487b7100000000000000000000000000000000000000000000000000000000600052603260045260246000fd5b7f4f776e61626c653a206e6577206f776e657220697320746865207a65726f206160008201527f6464726573730000000000000000000000000000000000000000000000000000602082015250565b60006113b0602683611036565b91506113bb82611354565b604082019050919050565b600060208201905081810360008301526113df816113a3565b9050919050565b60006060820190506113fb6000830186610ec1565b6114086020830185610ec1565b6114156040830184610e97565b949350505050565b600081519050919050565b600081905092915050565b600061143e8261141d565b6114488185611428565b9350611458818560208601611297565b80840191505092915050565b60006114708284611433565b915081905092915050565b60008115159050919050565b6114908161147b565b811461149b57600080fd5b50565b6000815190506114ad81611487565b92915050565b6000602082840312156114c9576114c8610c79565b5b60006114d78482850161149e565b91505092915050565b7f7472616e7366657246726f6d206661696c656400000000000000000000000000600082015250565b6000611516601383611036565b9150611521826114e0565b602082019050919050565b6000602082019050818103600083015261154581611509565b9050919050565b600061155782610d6d565b91507fffffffffffffffffffffffffffffffffffffffffffffffffffffffffffffffff82141561158a576115896111a3565b5b600182019050919050565b60006115a082610d6d565b91506115ab83610d6d565b9250828210156115be576115bd6111a3565b5b828203905092915050565b60006115d482610d6d565b91506115df83610d6d565b9250826115ef576115ee61122c565b5b828206905092915050565b600061160582610d6d565b915061161083610d6d565b9250827fffffffffffffffffffffffffffffffffffffffffffffffffffffffffffffffff03821115611645576116446111a3565b5b828201905092915050565b60006040820190506116656000830185610ec1565b6116726020830184610e97565b9392505050565b7f617070726f7665206661696c6564000000000000000000000000000000000000600082015250565b60006116af600e83611036565b91506116ba82611679565b602082019050919050565b600060208201905081810360008301526116de816116a2565b9050919050565b7f7472616e73666572206661696c65640000000000000000000000000000000000600082015250565b600061171b600f83611036565b9150611726826116e5565b602082019050919050565b6000602082019050818103600083015261174a8161170e565b905091905056fea264697066735822122043c9b340b85dc06de2802babfc0951111ebc117877a3f261b0038ea86f74634164736f6c634300080c0033",
  "devdoc": {
    "kind": "dev",
    "methods": {
      "owner()": {
        "details": "Returns the address of the current owner."
      },
      "renounceOwnership()": {
        "details": "Leaves the contract without owner. It will not be possible to call `onlyOwner` functions anymore. Can only be called by the current owner. NOTE: Renouncing ownership will leave the contract without an owner, thereby removing any functionality that is only available to the owner."
      },
      "swap((address,address,address,uint256,uint24))": {
        "details": "The calling address must approve this contract to spend at least `amountIn` worth of its DAI for this function to succeed.",
        "params": {
          "lparams": "check ILiquidationProtocol.LiquidateParams for params strut."
        },
        "returns": {
          "amounts": "The amount of target token received."
        }
      },
      "transferOwnership(address)": {
        "details": "Transfers ownership of the contract to a new account (`newOwner`). Can only be called by the current owner."
      }
    },
    "version": 1
  },
  "userdoc": {
    "kind": "user",
    "methods": {
      "swap((address,address,address,uint256,uint24))": {
        "notice": "swap swaps token on uniswap v3. calls `exactInputSingle` in the swap router."
      }
    },
    "version": 1
  },
  "storageLayout": {
    "storage": [
      {
        "astId": 6936,
        "contract": "contracts/LiquidationCompound.sol:LiquidationCompound",
        "label": "_owner",
        "offset": 0,
        "slot": "0",
        "type": "t_address"
      }
    ],
    "types": {
      "t_address": {
        "encoding": "inplace",
        "label": "address",
        "numberOfBytes": "20"
      }
    }
  }
}