{
  "address": "0x239FFD298CEB894b111a600808C27274B6b821aC",
  "abi": [
    {
      "inputs": [
        {
          "internalType": "contract ISwapRouter",
          "name": "_swapRouter",
          "type": "address"
        },
        {
          "internalType": "address",
          "name": "poolAddress",
          "type": "address"
        }
      ],
      "stateMutability": "nonpayable",
      "type": "constructor"
    },
    {
      "anonymous": false,
      "inputs": [
        {
          "indexed": true,
          "internalType": "address",
          "name": "previousOwner",
          "type": "address"
        },
        {
          "indexed": true,
          "internalType": "address",
          "name": "newOwner",
          "type": "address"
        }
      ],
      "name": "OwnershipTransferred",
      "type": "event"
    },
    {
      "inputs": [
        {
          "components": [
            {
              "internalType": "address",
              "name": "clientAddress",
              "type": "address"
            },
            {
              "internalType": "address",
              "name": "tokenFrom",
              "type": "address"
            },
            {
              "internalType": "address",
              "name": "tokenTo",
              "type": "address"
            },
            {
              "internalType": "uint256",
              "name": "amountIn",
              "type": "uint256"
            },
            {
              "internalType": "uint24",
              "name": "poolFee",
              "type": "uint24"
            }
          ],
          "internalType": "struct ILiquidationProtocol.LiquidateParams",
          "name": "lparams",
          "type": "tuple"
        }
      ],
      "name": "getApproveAmount",
      "outputs": [
        {
          "internalType": "uint256",
          "name": "amountOut",
          "type": "uint256"
        }
      ],
      "stateMutability": "pure",
      "type": "function"
    },
    {
      "inputs": [],
      "name": "owner",
      "outputs": [
        {
          "internalType": "address",
          "name": "",
          "type": "address"
        }
      ],
      "stateMutability": "view",
      "type": "function"
    },
    {
      "inputs": [],
      "name": "renounceOwnership",
      "outputs": [],
      "stateMutability": "nonpayable",
      "type": "function"
    },
    {
      "inputs": [
        {
          "components": [
            {
              "internalType": "address",
              "name": "clientAddress",
              "type": "address"
            },
            {
              "internalType": "address",
              "name": "tokenFrom",
              "type": "address"
            },
            {
              "internalType": "address",
              "name": "tokenTo",
              "type": "address"
            },
            {
              "internalType": "uint256",
              "name": "amountIn",
              "type": "uint256"
            },
            {
              "internalType": "uint24",
              "name": "poolFee",
              "type": "uint24"
            }
          ],
          "internalType": "struct ILiquidationProtocol.LiquidateParams",
          "name": "lparams",
          "type": "tuple"
        }
      ],
      "name": "swap",
      "outputs": [
        {
          "components": [
            {
              "internalType": "address",
              "name": "token",
              "type": "address"
            },
            {
              "internalType": "uint256",
              "name": "amount",
              "type": "uint256"
            }
          ],
          "internalType": "struct ILiquidationProtocol.LiquidatedAmount[]",
          "name": "amounts",
          "type": "tuple[]"
        }
      ],
      "stateMutability": "nonpayable",
      "type": "function"
    },
    {
      "inputs": [],
      "name": "swapRouter",
      "outputs": [
        {
          "internalType": "contract ISwapRouter",
          "name": "",
          "type": "address"
        }
      ],
      "stateMutability": "view",
      "type": "function"
    },
    {
      "inputs": [
        {
          "internalType": "address",
          "name": "newOwner",
          "type": "address"
        }
      ],
      "name": "transferOwnership",
      "outputs": [],
      "stateMutability": "nonpayable",
      "type": "function"
    }
  ],
  "transactionHash": "0x770afcec5027be1d2accd87e0962b39204a8c850a029327221c9932fbf58a770",
  "args": [
    "0xE592427A0AEce92De3Edee1F18E0157C05861564",
    "0xF2d8E40a7761cF301AA5BABC436d77dfD456d8dc"
  ],
  "numDeployments": 1,
  "solcInputHash": "7bc9459bb57cd8cc0eb8f51073ab0ff6",
  "bytecode": "0x60a06040523480156200001157600080fd5b506040516200155838038062001558833981810160405281019062000037919062000224565b620000576200004b620000a960201b60201c565b620000b160201b60201c565b8173ffffffffffffffffffffffffffffffffffffffff1660808173ffffffffffffffffffffffffffffffffffffffff1681525050620000a181620000b160201b620005ce1760201c565b50506200026b565b600033905090565b60008060009054906101000a900473ffffffffffffffffffffffffffffffffffffffff169050816000806101000a81548173ffffffffffffffffffffffffffffffffffffffff021916908373ffffffffffffffffffffffffffffffffffffffff1602179055508173ffffffffffffffffffffffffffffffffffffffff168173ffffffffffffffffffffffffffffffffffffffff167f8be0079c531659141344cd1fd0a4f28419497f9722a3daafe3b4186f6b6457e060405160405180910390a35050565b600080fd5b600073ffffffffffffffffffffffffffffffffffffffff82169050919050565b6000620001a7826200017a565b9050919050565b6000620001bb826200019a565b9050919050565b620001cd81620001ae565b8114620001d957600080fd5b50565b600081519050620001ed81620001c2565b92915050565b620001fe816200019a565b81146200020a57600080fd5b50565b6000815190506200021e81620001f3565b92915050565b600080604083850312156200023e576200023d62000175565b5b60006200024e85828601620001dc565b925050602062000261858286016200020d565b9150509250929050565b6080516112c362000295600039600081816101ea015281816102a8015261038e01526112c36000f3fe608060405234801561001057600080fd5b50600436106100625760003560e01c806324cfea2414610067578063715018a6146100975780638da5cb5b146100a1578063c31c9c07146100bf578063d2827962146100dd578063f2fde38b1461010d575b600080fd5b610081600480360381019061007c9190610b34565b610129565b60405161008e9190610b70565b60405180910390f35b61009f610137565b005b6100a96101bf565b6040516100b69190610b9a565b60405180910390f35b6100c76101e8565b6040516100d49190610c14565b60405180910390f35b6100f760048036038101906100f29190610b34565b61020c565b6040516101049190610d2b565b60405180910390f35b61012760048036038101906101229190610d4d565b6104d6565b005b600081606001519050919050565b61013f610692565b73ffffffffffffffffffffffffffffffffffffffff1661015d6101bf565b73ffffffffffffffffffffffffffffffffffffffff16146101b3576040517f08c379a00000000000000000000000000000000000000000000000000000000081526004016101aa90610dd7565b60405180910390fd5b6101bd60006105ce565b565b60008060009054906101000a900473ffffffffffffffffffffffffffffffffffffffff16905090565b7f000000000000000000000000000000000000000000000000000000000000000081565b6060610216610692565b73ffffffffffffffffffffffffffffffffffffffff166102346101bf565b73ffffffffffffffffffffffffffffffffffffffff161461028a576040517f08c379a000000000000000000000000000000000000000000000000000000000815260040161028190610dd7565b60405180910390fd5b61029e82602001513330856060015161069a565b6102d182602001517f000000000000000000000000000000000000000000000000000000000000000084606001516107d3565b6000604051806101000160405280846020015173ffffffffffffffffffffffffffffffffffffffff168152602001846040015173ffffffffffffffffffffffffffffffffffffffff168152602001846080015162ffffff1681526020013373ffffffffffffffffffffffffffffffffffffffff1681526020016002426103579190610e26565b81526020018460600151815260200160008152602001600073ffffffffffffffffffffffffffffffffffffffff16815250905060007f000000000000000000000000000000000000000000000000000000000000000073ffffffffffffffffffffffffffffffffffffffff1663414bf389836040518263ffffffff1660e01b81526004016103e59190610f40565b6020604051808303816000875af1158015610404573d6000803e3d6000fd5b505050506040513d601f19601f820116820180604052508101906104289190610f71565b9050600167ffffffffffffffff8111156104455761044461095e565b5b60405190808252806020026020018201604052801561047e57816020015b61046b610909565b8152602001906001900390816104635790505b5092506040518060400160405280856040015173ffffffffffffffffffffffffffffffffffffffff16815260200182815250836000815181106104c4576104c3610f9e565b5b60200260200101819052505050919050565b6104de610692565b73ffffffffffffffffffffffffffffffffffffffff166104fc6101bf565b73ffffffffffffffffffffffffffffffffffffffff1614610552576040517f08c379a000000000000000000000000000000000000000000000000000000000815260040161054990610dd7565b60405180910390fd5b600073ffffffffffffffffffffffffffffffffffffffff168173ffffffffffffffffffffffffffffffffffffffff1614156105c2576040517f08c379a00000000000000000000000000000000000000000000000000000000081526004016105b99061103f565b60405180910390fd5b6105cb816105ce565b50565b60008060009054906101000a900473ffffffffffffffffffffffffffffffffffffffff169050816000806101000a81548173ffffffffffffffffffffffffffffffffffffffff021916908373ffffffffffffffffffffffffffffffffffffffff1602179055508173ffffffffffffffffffffffffffffffffffffffff168173ffffffffffffffffffffffffffffffffffffffff167f8be0079c531659141344cd1fd0a4f28419497f9722a3daafe3b4186f6b6457e060405160405180910390a35050565b600033905090565b6000808573ffffffffffffffffffffffffffffffffffffffff166323b872dd8686866040516024016106ce9392919061105f565b6040516020818303038152906040529060e01b6020820180517bffffffffffffffffffffffffffffffffffffffffffffffffffffffff838183161783525050505060405161071c9190611110565b6000604051808303816000865af19150503d8060008114610759576040519150601f19603f3d011682016040523d82523d6000602084013e61075e565b606091505b509150915081801561078c575060008151148061078b57508080602001905181019061078a919061115f565b5b5b6107cb576040517f08c379a00000000000000000000000000000000000000000000000000000000081526004016107c2906111d8565b60405180910390fd5b505050505050565b6000808473ffffffffffffffffffffffffffffffffffffffff1663095ea7b385856040516024016108059291906111f8565b6040516020818303038152906040529060e01b6020820180517bffffffffffffffffffffffffffffffffffffffffffffffffffffffff83818316178352505050506040516108539190611110565b6000604051808303816000865af19150503d8060008114610890576040519150601f19603f3d011682016040523d82523d6000602084013e610895565b606091505b50915091508180156108c357506000815114806108c25750808060200190518101906108c1919061115f565b5b5b610902576040517f08c379a00000000000000000000000000000000000000000000000000000000081526004016108f99061126d565b60405180910390fd5b5050505050565b6040518060400160405280600073ffffffffffffffffffffffffffffffffffffffff168152602001600081525090565b6000604051905090565b600080fd5b600080fd5b6000601f19601f8301169050919050565b7f4e487b7100000000000000000000000000000000000000000000000000000000600052604160045260246000fd5b6109968261094d565b810181811067ffffffffffffffff821117156109b5576109b461095e565b5b80604052505050565b60006109c8610939565b90506109d4828261098d565b919050565b600073ffffffffffffffffffffffffffffffffffffffff82169050919050565b6000610a04826109d9565b9050919050565b610a14816109f9565b8114610a1f57600080fd5b50565b600081359050610a3181610a0b565b92915050565b6000819050919050565b610a4a81610a37565b8114610a5557600080fd5b50565b600081359050610a6781610a41565b92915050565b600062ffffff82169050919050565b610a8581610a6d565b8114610a9057600080fd5b50565b600081359050610aa281610a7c565b92915050565b600060a08284031215610abe57610abd610948565b5b610ac860a06109be565b90506000610ad884828501610a22565b6000830152506020610aec84828501610a22565b6020830152506040610b0084828501610a22565b6040830152506060610b1484828501610a58565b6060830152506080610b2884828501610a93565b60808301525092915050565b600060a08284031215610b4a57610b49610943565b5b6000610b5884828501610aa8565b91505092915050565b610b6a81610a37565b82525050565b6000602082019050610b856000830184610b61565b92915050565b610b94816109f9565b82525050565b6000602082019050610baf6000830184610b8b565b92915050565b6000819050919050565b6000610bda610bd5610bd0846109d9565b610bb5565b6109d9565b9050919050565b6000610bec82610bbf565b9050919050565b6000610bfe82610be1565b9050919050565b610c0e81610bf3565b82525050565b6000602082019050610c296000830184610c05565b92915050565b600081519050919050565b600082825260208201905092915050565b6000819050602082019050919050565b610c64816109f9565b82525050565b610c7381610a37565b82525050565b604082016000820151610c8f6000850182610c5b565b506020820151610ca26020850182610c6a565b50505050565b6000610cb48383610c79565b60408301905092915050565b6000602082019050919050565b6000610cd882610c2f565b610ce28185610c3a565b9350610ced83610c4b565b8060005b83811015610d1e578151610d058882610ca8565b9750610d1083610cc0565b925050600181019050610cf1565b5085935050505092915050565b60006020820190508181036000830152610d458184610ccd565b905092915050565b600060208284031215610d6357610d62610943565b5b6000610d7184828501610a22565b91505092915050565b600082825260208201905092915050565b7f4f776e61626c653a2063616c6c6572206973206e6f7420746865206f776e6572600082015250565b6000610dc1602083610d7a565b9150610dcc82610d8b565b602082019050919050565b60006020820190508181036000830152610df081610db4565b9050919050565b7f4e487b7100000000000000000000000000000000000000000000000000000000600052601160045260246000fd5b6000610e3182610a37565b9150610e3c83610a37565b9250817fffffffffffffffffffffffffffffffffffffffffffffffffffffffffffffffff0483118215151615610e7557610e74610df7565b5b828202905092915050565b610e8981610a6d565b82525050565b610e98816109d9565b82525050565b61010082016000820151610eb56000850182610c5b565b506020820151610ec86020850182610c5b565b506040820151610edb6040850182610e80565b506060820151610eee6060850182610c5b565b506080820151610f016080850182610c6a565b5060a0820151610f1460a0850182610c6a565b5060c0820151610f2760c0850182610c6a565b5060e0820151610f3a60e0850182610e8f565b50505050565b600061010082019050610f566000830184610e9e565b92915050565b600081519050610f6b81610a41565b92915050565b600060208284031215610f8757610f86610943565b5b6000610f9584828501610f5c565b91505092915050565b7f4e487b7100000000000000000000000000000000000000000000000000000000600052603260045260246000fd5b7f4f776e61626c653a206e6577206f776e657220697320746865207a65726f206160008201527f6464726573730000000000000000000000000000000000000000000000000000602082015250565b6000611029602683610d7a565b915061103482610fcd565b604082019050919050565b600060208201905081810360008301526110588161101c565b9050919050565b60006060820190506110746000830186610b8b565b6110816020830185610b8b565b61108e6040830184610b61565b949350505050565b600081519050919050565b600081905092915050565b60005b838110156110ca5780820151818401526020810190506110af565b838111156110d9576000848401525b50505050565b60006110ea82611096565b6110f481856110a1565b93506111048185602086016110ac565b80840191505092915050565b600061111c82846110df565b915081905092915050565b60008115159050919050565b61113c81611127565b811461114757600080fd5b50565b60008151905061115981611133565b92915050565b60006020828403121561117557611174610943565b5b60006111838482850161114a565b91505092915050565b7f7472616e7366657246726f6d206661696c656400000000000000000000000000600082015250565b60006111c2601383610d7a565b91506111cd8261118c565b602082019050919050565b600060208201905081810360008301526111f1816111b5565b9050919050565b600060408201905061120d6000830185610b8b565b61121a6020830184610b61565b9392505050565b7f617070726f7665206661696c6564000000000000000000000000000000000000600082015250565b6000611257600e83610d7a565b915061126282611221565b602082019050919050565b600060208201905081810360008301526112868161124a565b905091905056fea26469706673582212205aaf7c894fac65dae2e0af4ccaaae1adc45e785081ca268e7e587294468eed0a64736f6c634300080c0033",
  "devdoc": {
    "kind": "dev",
    "methods": {
      "owner()": {
        "details": "Returns the address of the current owner."
      },
      "renounceOwnership()": {
        "details": "Leaves the contract without owner. It will not be possible to call `onlyOwner` functions anymore. Can only be called by the current owner. NOTE: Renouncing ownership will leave the contract without an owner, thereby removing any functionality that is only available to the owner."
      },
      "swap((address,address,address,uint256,uint24))": {
        "details": "The calling address must approve this contract to spend at least `amountIn` worth of its DAI for this function to succeed.",
        "params": {
          "lparams": "check ILiquidationProtocol.LiquidateParams for params strut."
        },
        "returns": {
          "amounts": "The amount of target token received."
        }
      },
      "transferOwnership(address)": {
        "details": "Transfers ownership of the contract to a new account (`newOwner`). Can only be called by the current owner."
      }
    },
    "version": 1
  },
  "userdoc": {
    "kind": "user",
    "methods": {
      "swap((address,address,address,uint256,uint24))": {
        "notice": "swap swaps token on uniswap v3. calls `exactInputSingle` in the swap router."
      }
    },
    "version": 1
  },
  "storageLayout": {
    "storage": [
      {
        "astId": 6936,
        "contract": "contracts/LiquidationUniswapV3.sol:LiquidationUniswapV3",
        "label": "_owner",
        "offset": 0,
        "slot": "0",
        "type": "t_address"
      }
    ],
    "types": {
      "t_address": {
        "encoding": "inplace",
        "label": "address",
        "numberOfBytes": "20"
      }
    }
  }
}