{
  "address": "0x0a90341041c9Ed8c2db4845000c49b31Cc3624E5",
  "abi": [
    {
      "inputs": [
        {
          "internalType": "address",
          "name": "addrProvider",
          "type": "address"
        },
        {
          "internalType": "address",
          "name": "poolAddress",
          "type": "address"
        }
      ],
      "stateMutability": "nonpayable",
      "type": "constructor"
    },
    {
      "anonymous": false,
      "inputs": [
        {
          "indexed": true,
          "internalType": "address",
          "name": "previousOwner",
          "type": "address"
        },
        {
          "indexed": true,
          "internalType": "address",
          "name": "newOwner",
          "type": "address"
        }
      ],
      "name": "OwnershipTransferred",
      "type": "event"
    },
    {
      "inputs": [
        {
          "components": [
            {
              "internalType": "address",
              "name": "clientAddress",
              "type": "address"
            },
            {
              "internalType": "address",
              "name": "tokenFrom",
              "type": "address"
            },
            {
              "internalType": "address",
              "name": "tokenTo",
              "type": "address"
            },
            {
              "internalType": "uint256",
              "name": "amountIn",
              "type": "uint256"
            },
            {
              "internalType": "uint24",
              "name": "poolFee",
              "type": "uint24"
            }
          ],
          "internalType": "struct ILiquidationProtocol.LiquidateParams",
          "name": "lparams",
          "type": "tuple"
        }
      ],
      "name": "getApproveAmount",
      "outputs": [
        {
          "internalType": "uint256",
          "name": "amountOut",
          "type": "uint256"
        }
      ],
      "stateMutability": "pure",
      "type": "function"
    },
    {
      "inputs": [],
      "name": "owner",
      "outputs": [
        {
          "internalType": "address",
          "name": "",
          "type": "address"
        }
      ],
      "stateMutability": "view",
      "type": "function"
    },
    {
      "inputs": [],
      "name": "renounceOwnership",
      "outputs": [],
      "stateMutability": "nonpayable",
      "type": "function"
    },
    {
      "inputs": [
        {
          "components": [
            {
              "internalType": "address",
              "name": "clientAddress",
              "type": "address"
            },
            {
              "internalType": "address",
              "name": "tokenFrom",
              "type": "address"
            },
            {
              "internalType": "address",
              "name": "tokenTo",
              "type": "address"
            },
            {
              "internalType": "uint256",
              "name": "amountIn",
              "type": "uint256"
            },
            {
              "internalType": "uint24",
              "name": "poolFee",
              "type": "uint24"
            }
          ],
          "internalType": "struct ILiquidationProtocol.LiquidateParams",
          "name": "lparams",
          "type": "tuple"
        }
      ],
      "name": "swap",
      "outputs": [
        {
          "components": [
            {
              "internalType": "address",
              "name": "token",
              "type": "address"
            },
            {
              "internalType": "uint256",
              "name": "amount",
              "type": "uint256"
            }
          ],
          "internalType": "struct ILiquidationProtocol.LiquidatedAmount[]",
          "name": "amounts",
          "type": "tuple[]"
        }
      ],
      "stateMutability": "nonpayable",
      "type": "function"
    },
    {
      "inputs": [
        {
          "internalType": "address",
          "name": "newOwner",
          "type": "address"
        }
      ],
      "name": "transferOwnership",
      "outputs": [],
      "stateMutability": "nonpayable",
      "type": "function"
    }
  ],
  "transactionHash": "0x50c5a4987a5509f289a54879091e052815c157d0d3cecadb10bdc22010b2e1c1",
  "args": [
    "0x0000000000000000000000000000000000000000",
    "0xF2d8E40a7761cF301AA5BABC436d77dfD456d8dc"
  ],
  "numDeployments": 2,
  "solcInputHash": "7bc9459bb57cd8cc0eb8f51073ab0ff6",
  "bytecode": "0x60806040523480156200001157600080fd5b50604051620025b0380380620025b08339818101604052810190620000379190620001ec565b620000576200004b620000b660201b60201c565b620000be60201b60201c565b81600160006101000a81548173ffffffffffffffffffffffffffffffffffffffff021916908373ffffffffffffffffffffffffffffffffffffffff160217905550620000ae81620000be60201b62000f941760201c565b505062000233565b600033905090565b60008060009054906101000a900473ffffffffffffffffffffffffffffffffffffffff169050816000806101000a81548173ffffffffffffffffffffffffffffffffffffffff021916908373ffffffffffffffffffffffffffffffffffffffff1602179055508173ffffffffffffffffffffffffffffffffffffffff168173ffffffffffffffffffffffffffffffffffffffff167f8be0079c531659141344cd1fd0a4f28419497f9722a3daafe3b4186f6b6457e060405160405180910390a35050565b600080fd5b600073ffffffffffffffffffffffffffffffffffffffff82169050919050565b6000620001b48262000187565b9050919050565b620001c681620001a7565b8114620001d257600080fd5b50565b600081519050620001e681620001bb565b92915050565b6000806040838503121562000206576200020562000182565b5b60006200021685828601620001d5565b92505060206200022985828601620001d5565b9150509250929050565b61236d80620002436000396000f3fe608060405234801561001057600080fd5b50600436106100575760003560e01c806324cfea241461005c578063715018a61461008c5780638da5cb5b14610096578063d2827962146100b4578063f2fde38b146100e4575b600080fd5b61007660048036038101906100719190611630565b610100565b604051610083919061166c565b60405180910390f35b61009461010e565b005b61009e610196565b6040516100ab9190611696565b60405180910390f35b6100ce60048036038101906100c99190611630565b6101bf565b6040516100db91906117ad565b60405180910390f35b6100fe60048036038101906100f991906117cf565b610e9c565b005b600081606001519050919050565b610116611058565b73ffffffffffffffffffffffffffffffffffffffff16610134610196565b73ffffffffffffffffffffffffffffffffffffffff161461018a576040517f08c379a000000000000000000000000000000000000000000000000000000000815260040161018190611859565b60405180910390fd5b6101946000610f94565b565b60008060009054906101000a900473ffffffffffffffffffffffffffffffffffffffff16905090565b60606101c9611058565b73ffffffffffffffffffffffffffffffffffffffff166101e7610196565b73ffffffffffffffffffffffffffffffffffffffff161461023d576040517f08c379a000000000000000000000000000000000000000000000000000000000815260040161023490611859565b60405180910390fd5b600080600160009054906101000a900473ffffffffffffffffffffffffffffffffffffffff1673ffffffffffffffffffffffffffffffffffffffff1663a262904b6040516024016040516020818303038152906040529060e01b6020820180517bffffffffffffffffffffffffffffffffffffffffffffffffffffffff83818316178352505050506040516102d291906118f3565b6000604051808303816000865af19150503d806000811461030f576040519150601f19603f3d011682016040523d82523d6000602084013e610314565b606091505b509150915060008180602001905181019061032f9190611948565b905082801561036b5750600073ffffffffffffffffffffffffffffffffffffffff168173ffffffffffffffffffffffffffffffffffffffff1614155b6103aa576040517f08c379a00000000000000000000000000000000000000000000000000000000081526004016103a1906119c1565b60405180910390fd5b8073ffffffffffffffffffffffffffffffffffffffff1663bdf475c386602001516040516024016103db9190611696565b6040516020818303038152906040529060e01b6020820180517bffffffffffffffffffffffffffffffffffffffffffffffffffffffff838183161783525050505060405161042991906118f3565b6000604051808303816000865af19150503d8060008114610466576040519150601f19603f3d011682016040523d82523d6000602084013e61046b565b606091505b50809350819450505060008280602001905181019061048a9190611948565b90508380156104c65750600073ffffffffffffffffffffffffffffffffffffffff168173ffffffffffffffffffffffffffffffffffffffff1614155b610505576040517f08c379a00000000000000000000000000000000000000000000000000000000081526004016104fc90611a2d565b60405180910390fd5b8173ffffffffffffffffffffffffffffffffffffffff1663940494f1826040516024016105329190611696565b6040516020818303038152906040529060e01b6020820180517bffffffffffffffffffffffffffffffffffffffffffffffffffffffff838183161783525050505060405161058091906118f3565b6000604051808303816000865af19150503d80600081146105bd576040519150601f19603f3d011682016040523d82523d6000602084013e6105c2565b606091505b5080945081955050506000838060200190518101906105e19190611b1d565b6001600281106105f4576105f3611b4a565b5b602002015167ffffffffffffffff8111156106125761061161145a565b5b6040519080825280602002602001820160405280156106405781602001602082028036833780820191505090505b50905060005b815181101561068357600082828151811061066457610663611b4a565b5b602002602001018181525050808061067b90611ba8565b915050610646565b50846106c4576040517f08c379a00000000000000000000000000000000000000000000000000000000081526004016106bb90611c3d565b60405180910390fd5b8273ffffffffffffffffffffffffffffffffffffffff1663a77576ef836040516024016106f19190611696565b6040516020818303038152906040529060e01b6020820180517bffffffffffffffffffffffffffffffffffffffffffffffffffffffff838183161783525050505060405161073f91906118f3565b6000604051808303816000865af19150503d806000811461077c576040519150601f19603f3d011682016040523d82523d6000602084013e610781565b606091505b5080955081965050506000848060200190518101906107a09190611d23565b90508580156107b0575060006008115b6107ef576040517f08c379a00000000000000000000000000000000000000000000000000000000081526004016107e690611d9d565b60405180910390fd5b60007fffffffffffffffffffffffffffffffffffffffffffffffffffffffffffffffff905060005b600881101561088657896040015173ffffffffffffffffffffffffffffffffffffffff1683826008811061084e5761084d611b4a565b5b602002015173ffffffffffffffffffffffffffffffffffffffff161415610873578091505b808061087e90611ba8565b915050610817565b507fffffffffffffffffffffffffffffffffffffffffffffffffffffffffffffffff8114156108ea576040517f08c379a00000000000000000000000000000000000000000000000000000000081526004016108e190611e09565b60405180910390fd5b8373ffffffffffffffffffffffffffffffffffffffff166040518060600160405280602781526020016122b960279139805190602001208a6060015183604051602401610938929190611e29565b604051602081830303815290604052907bffffffffffffffffffffffffffffffffffffffffffffffffffffffff19166020820180517bffffffffffffffffffffffffffffffffffffffffffffffffffffffff83818316178352505050506040516109a291906118f3565b6000604051808303816000865af19150503d80600081146109df576040519150601f19603f3d011682016040523d82523d6000602084013e6109e4565b606091505b5080975081985050508680156109fb575060008651115b610b03578373ffffffffffffffffffffffffffffffffffffffff166040518060600160405280602681526020016122e060269139805190602001208a6060015183604051602401610a4d929190611e6e565b604051602081830303815290604052907bffffffffffffffffffffffffffffffffffffffffffffffffffffffff19166020820180517bffffffffffffffffffffffffffffffffffffffffffffffffffffffff8381831617835250505050604051610ab791906118f3565b6000604051808303816000865af19150503d8060008114610af4576040519150601f19603f3d011682016040523d82523d6000602084013e610af9565b606091505b5080975081985050505b868015610b11575060008651115b610b50576040517f08c379a0000000000000000000000000000000000000000000000000000000008152600401610b4790611ee3565b60405180910390fd5b600086806020019051810190610b669190611f03565b9050610b7c8a6020015133308d60600151611060565b8473ffffffffffffffffffffffffffffffffffffffff1660405180606001604052806032815260200161230660329139805190602001208b606001518484604051602401610bcc93929190611f49565b604051602081830303815290604052907bffffffffffffffffffffffffffffffffffffffffffffffffffffffff19166020820180517bffffffffffffffffffffffffffffffffffffffffffffffffffffffff8381831617835250505050604051610c3691906118f3565b6000604051808303816000865af19150503d8060008114610c73576040519150601f19603f3d011682016040523d82523d6000602084013e610c78565b606091505b50809850819950505087610d8c578473ffffffffffffffffffffffffffffffffffffffff1660405180606001604052806031815260200161228860319139805190602001208b606001518484604051602401610cd693929190611f49565b604051602081830303815290604052907bffffffffffffffffffffffffffffffffffffffffffffffffffffffff19166020820180517bffffffffffffffffffffffffffffffffffffffffffffffffffffffff8381831617835250505050604051610d4091906118f3565b6000604051808303816000865af19150503d8060008114610d7d576040519150601f19603f3d011682016040523d82523d6000602084013e610d82565b606091505b5080985081995050505b87610dcc576040517f08c379a0000000000000000000000000000000000000000000000000000000008152600401610dc390611fcc565b60405180910390fd5b610ddb8a604001513383611199565b610dea8a6040015133836112cf565b600167ffffffffffffffff811115610e0557610e0461145a565b5b604051908082528060200260200182016040528015610e3e57816020015b610e2b611405565b815260200190600190039081610e235790505b50985060405180604001604052808b6040015173ffffffffffffffffffffffffffffffffffffffff1681526020018281525089600081518110610e8457610e83611b4a565b5b60200260200101819052505050505050505050919050565b610ea4611058565b73ffffffffffffffffffffffffffffffffffffffff16610ec2610196565b73ffffffffffffffffffffffffffffffffffffffff1614610f18576040517f08c379a0000000000000000000000000000000000000000000000000000000008152600401610f0f90611859565b60405180910390fd5b600073ffffffffffffffffffffffffffffffffffffffff168173ffffffffffffffffffffffffffffffffffffffff161415610f88576040517f08c379a0000000000000000000000000000000000000000000000000000000008152600401610f7f9061205e565b60405180910390fd5b610f9181610f94565b50565b60008060009054906101000a900473ffffffffffffffffffffffffffffffffffffffff169050816000806101000a81548173ffffffffffffffffffffffffffffffffffffffff021916908373ffffffffffffffffffffffffffffffffffffffff1602179055508173ffffffffffffffffffffffffffffffffffffffff168173ffffffffffffffffffffffffffffffffffffffff167f8be0079c531659141344cd1fd0a4f28419497f9722a3daafe3b4186f6b6457e060405160405180910390a35050565b600033905090565b6000808573ffffffffffffffffffffffffffffffffffffffff166323b872dd8686866040516024016110949392919061207e565b6040516020818303038152906040529060e01b6020820180517bffffffffffffffffffffffffffffffffffffffffffffffffffffffff83818316178352505050506040516110e291906118f3565b6000604051808303816000865af19150503d806000811461111f576040519150601f19603f3d011682016040523d82523d6000602084013e611124565b606091505b5091509150818015611152575060008151148061115157508080602001905181019061115091906120ed565b5b5b611191576040517f08c379a000000000000000000000000000000000000000000000000000000000815260040161118890612166565b60405180910390fd5b505050505050565b6000808473ffffffffffffffffffffffffffffffffffffffff1663095ea7b385856040516024016111cb929190612186565b6040516020818303038152906040529060e01b6020820180517bffffffffffffffffffffffffffffffffffffffffffffffffffffffff838183161783525050505060405161121991906118f3565b6000604051808303816000865af19150503d8060008114611256576040519150601f19603f3d011682016040523d82523d6000602084013e61125b565b606091505b5091509150818015611289575060008151148061128857508080602001905181019061128791906120ed565b5b5b6112c8576040517f08c379a00000000000000000000000000000000000000000000000000000000081526004016112bf906121fb565b60405180910390fd5b5050505050565b6000808473ffffffffffffffffffffffffffffffffffffffff1663a9059cbb8585604051602401611301929190612186565b6040516020818303038152906040529060e01b6020820180517bffffffffffffffffffffffffffffffffffffffffffffffffffffffff838183161783525050505060405161134f91906118f3565b6000604051808303816000865af19150503d806000811461138c576040519150601f19603f3d011682016040523d82523d6000602084013e611391565b606091505b50915091508180156113bf57506000815114806113be5750808060200190518101906113bd91906120ed565b5b5b6113fe576040517f08c379a00000000000000000000000000000000000000000000000000000000081526004016113f590612267565b60405180910390fd5b5050505050565b6040518060400160405280600073ffffffffffffffffffffffffffffffffffffffff168152602001600081525090565b6000604051905090565b600080fd5b600080fd5b6000601f19601f8301169050919050565b7f4e487b7100000000000000000000000000000000000000000000000000000000600052604160045260246000fd5b61149282611449565b810181811067ffffffffffffffff821117156114b1576114b061145a565b5b80604052505050565b60006114c4611435565b90506114d08282611489565b919050565b600073ffffffffffffffffffffffffffffffffffffffff82169050919050565b6000611500826114d5565b9050919050565b611510816114f5565b811461151b57600080fd5b50565b60008135905061152d81611507565b92915050565b6000819050919050565b61154681611533565b811461155157600080fd5b50565b6000813590506115638161153d565b92915050565b600062ffffff82169050919050565b61158181611569565b811461158c57600080fd5b50565b60008135905061159e81611578565b92915050565b600060a082840312156115ba576115b9611444565b5b6115c460a06114ba565b905060006115d48482850161151e565b60008301525060206115e88482850161151e565b60208301525060406115fc8482850161151e565b604083015250606061161084828501611554565b60608301525060806116248482850161158f565b60808301525092915050565b600060a082840312156116465761164561143f565b5b6000611654848285016115a4565b91505092915050565b61166681611533565b82525050565b6000602082019050611681600083018461165d565b92915050565b611690816114f5565b82525050565b60006020820190506116ab6000830184611687565b92915050565b600081519050919050565b600082825260208201905092915050565b6000819050602082019050919050565b6116e6816114f5565b82525050565b6116f581611533565b82525050565b60408201600082015161171160008501826116dd565b50602082015161172460208501826116ec565b50505050565b600061173683836116fb565b60408301905092915050565b6000602082019050919050565b600061175a826116b1565b61176481856116bc565b935061176f836116cd565b8060005b838110156117a0578151611787888261172a565b975061179283611742565b925050600181019050611773565b5085935050505092915050565b600060208201905081810360008301526117c7818461174f565b905092915050565b6000602082840312156117e5576117e461143f565b5b60006117f38482850161151e565b91505092915050565b600082825260208201905092915050565b7f4f776e61626c653a2063616c6c6572206973206e6f7420746865206f776e6572600082015250565b60006118436020836117fc565b915061184e8261180d565b602082019050919050565b6000602082019050818103600083015261187281611836565b9050919050565b600081519050919050565b600081905092915050565b60005b838110156118ad578082015181840152602081019050611892565b838111156118bc576000848401525b50505050565b60006118cd82611879565b6118d78185611884565b93506118e781856020860161188f565b80840191505092915050565b60006118ff82846118c2565b915081905092915050565b6000611915826114d5565b9050919050565b6119258161190a565b811461193057600080fd5b50565b6000815190506119428161191c565b92915050565b60006020828403121561195e5761195d61143f565b5b600061196c84828501611933565b91505092915050565b7f7265676973747279206e6f7420666f756e640000000000000000000000000000600082015250565b60006119ab6012836117fc565b91506119b682611975565b602082019050919050565b600060208201905081810360008301526119da8161199e565b9050919050565b7f4c5020746f6b656e20706f6f6c206e6f7420666f756e64000000000000000000600082015250565b6000611a176017836117fc565b9150611a22826119e1565b602082019050919050565b60006020820190508181036000830152611a4681611a0a565b9050919050565b600080fd5b600067ffffffffffffffff821115611a6d57611a6c61145a565b5b602082029050919050565b600080fd5b600081519050611a8c8161153d565b92915050565b6000611aa5611aa084611a52565b6114ba565b90508060208402830185811115611abf57611abe611a78565b5b835b81811015611ae85780611ad48882611a7d565b845260208401935050602081019050611ac1565b5050509392505050565b600082601f830112611b0757611b06611a4d565b5b6002611b14848285611a92565b91505092915050565b600060408284031215611b3357611b3261143f565b5b6000611b4184828501611af2565b91505092915050565b7f4e487b7100000000000000000000000000000000000000000000000000000000600052603260045260246000fd5b7f4e487b7100000000000000000000000000000000000000000000000000000000600052601160045260246000fd5b6000611bb382611533565b91507fffffffffffffffffffffffffffffffffffffffffffffffffffffffffffffffff821415611be657611be5611b79565b5b600182019050919050565b7f6765745f6e5f636f696e73286164647265737329206661696c65640000000000600082015250565b6000611c27601b836117fc565b9150611c3282611bf1565b602082019050919050565b60006020820190508181036000830152611c5681611c1a565b9050919050565b600067ffffffffffffffff821115611c7857611c7761145a565b5b602082029050919050565b600081519050611c9281611507565b92915050565b6000611cab611ca684611c5d565b6114ba565b90508060208402830185811115611cc557611cc4611a78565b5b835b81811015611cee5780611cda8882611c83565b845260208401935050602081019050611cc7565b5050509392505050565b600082601f830112611d0d57611d0c611a4d565b5b6008611d1a848285611c98565b91505092915050565b60006101008284031215611d3a57611d3961143f565b5b6000611d4884828501611cf8565b91505092915050565b7f706f6f6c20636f696e73206e6f7420666f756e64000000000000000000000000600082015250565b6000611d876014836117fc565b9150611d9282611d51565b602082019050919050565b60006020820190508181036000830152611db681611d7a565b9050919050565b7f746f6b656e546f206973206e6f7420756e6465726c79696e6720617373657400600082015250565b6000611df3601f836117fc565b9150611dfe82611dbd565b602082019050919050565b60006020820190508181036000830152611e2281611de6565b9050919050565b6000604082019050611e3e600083018561165d565b611e4b602083018461165d565b9392505050565b600081600f0b9050919050565b611e6881611e52565b82525050565b6000604082019050611e83600083018561165d565b611e906020830184611e5f565b9392505050565b7f706f6f6c2077697468647261772063616c63206661696c656400000000000000600082015250565b6000611ecd6019836117fc565b9150611ed882611e97565b602082019050919050565b60006020820190508181036000830152611efc81611ec0565b9050919050565b600060208284031215611f1957611f1861143f565b5b6000611f2784828501611a7d565b91505092915050565b6000819050919050565b611f4381611f30565b82525050565b6000606082019050611f5e600083018661165d565b611f6b6020830185611f3a565b611f78604083018461165d565b949350505050565b7f706f6f6c207769746864726177206661696c6564000000000000000000000000600082015250565b6000611fb66014836117fc565b9150611fc182611f80565b602082019050919050565b60006020820190508181036000830152611fe581611fa9565b9050919050565b7f4f776e61626c653a206e6577206f776e657220697320746865207a65726f206160008201527f6464726573730000000000000000000000000000000000000000000000000000602082015250565b60006120486026836117fc565b915061205382611fec565b604082019050919050565b600060208201905081810360008301526120778161203b565b9050919050565b60006060820190506120936000830186611687565b6120a06020830185611687565b6120ad604083018461165d565b949350505050565b60008115159050919050565b6120ca816120b5565b81146120d557600080fd5b50565b6000815190506120e7816120c1565b92915050565b6000602082840312156121035761210261143f565b5b6000612111848285016120d8565b91505092915050565b7f7472616e7366657246726f6d206661696c656400000000000000000000000000600082015250565b60006121506013836117fc565b915061215b8261211a565b602082019050919050565b6000602082019050818103600083015261217f81612143565b9050919050565b600060408201905061219b6000830185611687565b6121a8602083018461165d565b9392505050565b7f617070726f7665206661696c6564000000000000000000000000000000000000600082015250565b60006121e5600e836117fc565b91506121f0826121af565b602082019050919050565b60006020820190508181036000830152612214816121d8565b9050919050565b7f7472616e73666572206661696c65640000000000000000000000000000000000600082015250565b6000612251600f836117fc565b915061225c8261221b565b602082019050919050565b6000602082019050818103600083015261228081612244565b905091905056fe72656d6f76655f6c69717569646974795f6f6e655f636f696e2875696e743235362c696e743132382c75696e743235362963616c635f77697468647261775f6f6e655f636f696e2875696e743235362c75696e743235362963616c635f77697468647261775f6f6e655f636f696e2875696e743235362c696e743132382972656d6f76655f6c69717569646974795f6f6e655f636f696e2875696e743235362c75696e743235362c75696e7432353629a26469706673582212203d18be7bca24ca8dd8e14011a15d282838765c766d4be03b5bb70e4ddebdbdec64736f6c634300080c0033",
  "devdoc": {
    "kind": "dev",
    "methods": {
      "owner()": {
        "details": "Returns the address of the current owner."
      },
      "renounceOwnership()": {
        "details": "Leaves the contract without owner. It will not be possible to call `onlyOwner` functions anymore. Can only be called by the current owner. NOTE: Renouncing ownership will leave the contract without an owner, thereby removing any functionality that is only available to the owner."
      },
      "swap((address,address,address,uint256,uint24))": {
        "details": "The calling address must approve this contract to spend at least `amountIn` worth of its DAI for this function to succeed.",
        "params": {
          "lparams": "check ILiquidationProtocol.LiquidateParams for params strut."
        },
        "returns": {
          "amounts": "The amount of target token received."
        }
      },
      "transferOwnership(address)": {
        "details": "Transfers ownership of the contract to a new account (`newOwner`). Can only be called by the current owner."
      }
    },
    "version": 1
  },
  "userdoc": {
    "kind": "user",
    "methods": {
      "swap((address,address,address,uint256,uint24))": {
        "notice": "swap swaps token on uniswap v3. calls `exactInputSingle` in the swap router."
      }
    },
    "version": 1
  },
  "storageLayout": {
    "storage": [
      {
        "astId": 6936,
        "contract": "contracts/LiquidationCurve.sol:LiquidationCurve",
        "label": "_owner",
        "offset": 0,
        "slot": "0",
        "type": "t_address"
      },
      {
        "astId": 6044,
        "contract": "contracts/LiquidationCurve.sol:LiquidationCurve",
        "label": "_addrProvider",
        "offset": 0,
        "slot": "1",
        "type": "t_address"
      }
    ],
    "types": {
      "t_address": {
        "encoding": "inplace",
        "label": "address",
        "numberOfBytes": "20"
      }
    }
  }
}